{
  "_format": "hh-sol-artifact-1",
  "contractName": "Forge",
  "sourceName": "contracts/Forge.sol",
  "abi": [
    {
      "inputs": [
        {
          "internalType": "bytes",
          "name": "n",
          "type": "bytes"
        },
        {
          "internalType": "bytes",
          "name": "e",
          "type": "bytes"
        }
      ],
      "name": "addKey",
      "outputs": [],
      "stateMutability": "nonpayable",
      "type": "function"
    },
    {
      "inputs": [
        {
          "internalType": "string",
          "name": "nftMetadata",
          "type": "string"
        },
        {
          "internalType": "bytes",
          "name": "v",
          "type": "bytes"
        },
        {
          "internalType": "bytes",
          "name": "X",
          "type": "bytes"
        }
      ],
      "name": "forgeNft",
      "outputs": [],
      "stateMutability": "nonpayable",
      "type": "function"
    },
    {
      "inputs": [
        {
          "internalType": "uint256",
          "name": "",
          "type": "uint256"
        }
      ],
      "name": "keys",
      "outputs": [
        {
          "internalType": "bytes",
          "name": "n",
          "type": "bytes"
        },
        {
          "internalType": "bytes",
          "name": "e",
          "type": "bytes"
        }
      ],
      "stateMutability": "view",
      "type": "function"
    },
    {
      "inputs": [],
      "name": "members",
      "outputs": [
        {
          "internalType": "uint256",
          "name": "",
          "type": "uint256"
        }
      ],
      "stateMutability": "view",
      "type": "function"
    },
    {
      "inputs": [
        {
          "internalType": "uint256",
          "name": "",
          "type": "uint256"
        }
      ],
      "name": "nfts",
      "outputs": [
        {
          "internalType": "contract DummyERC721",
          "name": "",
          "type": "address"
        }
      ],
      "stateMutability": "view",
      "type": "function"
    },
    {
      "inputs": [],
      "name": "numberOfNfts",
      "outputs": [
        {
          "internalType": "uint256",
          "name": "",
          "type": "uint256"
        }
      ],
      "stateMutability": "view",
      "type": "function"
    },
    {
      "inputs": [
        {
          "internalType": "bytes",
          "name": "message",
          "type": "bytes"
        },
        {
          "internalType": "bytes",
          "name": "v",
          "type": "bytes"
        },
        {
          "internalType": "bytes",
          "name": "X",
          "type": "bytes"
        }
      ],
      "name": "ringVerify",
      "outputs": [
        {
          "internalType": "bool",
          "name": "",
          "type": "bool"
        }
      ],
      "stateMutability": "view",
      "type": "function"
    }
  ],
  "bytecode": "0x608060405234801561001057600080fd5b50611696806100206000396000f3fe60806040523480156200001157600080fd5b50600436106200008b5760003560e060020a900480636e237bc711620000665780636e237bc71462000116578063857a76ec146200012d578063bdd4d18d1462000140578063de21b82a146200014957600080fd5b80630c6fe1aa14620000905780630cb6aaf114620000a9578063265aa62114620000d9575b600080fd5b620000a7620000a136600462000c83565b62000171565b005b620000c0620000ba36600462000cee565b620001f2565b604051620000d092919062000d69565b60405180910390f35b620000f0620000ea36600462000cee565b62000347565b60405173ffffffffffffffffffffffffffffffffffffffff9091168152602001620000d0565b620000a76200012736600462000d9b565b6200037f565b6001545b604051908152602001620000d0565b60005462000131565b620001606200015a36600462000e45565b62000545565b6040519015158152602001620000d0565b604080518082019091528281526020808201839052600080546001810182559080528251805160029092027f290decd9548b62a8d60345a988386fc84ba6bc95484008f6362f93160ef3e5630192620001d09284929091019062000af1565b506020828101518051620001eb926001850192019062000af1565b5050505050565b600081815481106200020357600080fd5b9060005260206000209060020201600091509050806000018054620002289062000e82565b80601f0160208091040260200160405190810160405280929190818152602001828054620002569062000e82565b8015620002a75780601f106200027b57610100808354040283529160200191620002a7565b820191906000526020600020905b8154815290600101906020018083116200028957829003601f168201915b505050505090806001018054620002be9062000e82565b80601f0160208091040260200160405190810160405280929190818152602001828054620002ec9062000e82565b80156200033d5780601f1062000311576101008083540402835291602001916200033d565b820191906000526020600020905b8154815290600101906020018083116200031f57829003601f168201915b5050505050905082565b600181815481106200035857600080fd5b60009182526020909120015473ffffffffffffffffffffffffffffffffffffffff16905081565b600060028460405162000393919062000ec1565b602060405180830381855afa158015620003b1573d6000803e3d6000fd5b5050506040513d601f19601f82011682018060405250810190620003d6919062000edf565b604051602001620003e991815260200190565b60405160208183030381529060405290506200040781848462000545565b62000498576040517f08c379a000000000000000000000000000000000000000000000000000000000815260206004820152603960248201527f546865207369676e617475726520697320696e636f72726563742c2063616e2760448201527f742070726f6365656420746f204e4654206372656174696f6e00000000000000606482015260840160405180910390fd5b60008433604051620004aa9062000b80565b620004b792919062000ef9565b604051809103906000f080158015620004d4573d6000803e3d6000fd5b506001805480820182556000919091527fb10e2d527612073b26eecdfd717e6a320cf44b4afac2b0732d9fcbe2b7fa0cf601805473ffffffffffffffffffffffffffffffffffffffff191673ffffffffffffffffffffffffffffffffffffffff929092169190911790555050505050565b600080600873__$d5a3c24c931e34c4ba4cbda260a0b2ea8f$__63757aaa47600080815481106200057a576200057a62000f33565b90600052602060002090600202016000016040518263ffffffff1660e060020a028152600401620005ac919062000f4c565b602060405180830381865af4158015620005ca573d6000803e3d6000fd5b505050506040513d601f19601f82011682018060405250810190620005f0919062000edf565b620005fc919062001018565b90508360005b6000548110156200087a5760006200061b84836200103e565b905060006200062c8783876200089e565b90506000620007cc8260405160200162000647919062000ec1565b604051602081830303815290604052600086815481106200066c576200066c62000f33565b906000526020600020906002020160010180546200068a9062000e82565b80601f0160208091040260200160405190810160405280929190818152602001828054620006b89062000e82565b8015620007095780601f10620006dd5761010080835404028352916020019162000709565b820191906000526020600020905b815481529060010190602001808311620006eb57829003601f168201915b50505050506000878154811062000724576200072462000f33565b90600052602060002090600202016000018054620007429062000e82565b80601f0160208091040260200160405190810160405280929190818152602001828054620007709062000e82565b8015620007c15780601f106200079557610100808354040283529160200191620007c1565b820191906000526020600020905b815481529060010190602001808311620007a357829003601f168201915b505050505062000915565b90506200085f73__$d5a3c24c931e34c4ba4cbda260a0b2ea8f$__63059dd39c87846040518363ffffffff1660e060020a0281526004016200081092919062000d69565b600060405180830381865af41580156200082e573d6000803e3d6000fd5b505050506040513d6000823e601f3d908101601f1916820160405262000858919081019062001060565b8b62000a4f565b945050505080806200087190620010d7565b91505062000602565b506200088685620010f3565b6200089182620010f3565b14925050505b9392505050565b60608082158015620008c057604051915060008252602082016040526200090c565b6040519150601f8416801560200281840101858101878315602002848b0101015b81831015620008fb578051835260209283019201620008e1565b5050858452601f01601f1916604052505b50949350505050565b606061040173__$d5a3c24c931e34c4ba4cbda260a0b2ea8f$__63757aaa47846040518263ffffffff1660e060020a02815260040162000956919062001117565b602060405180830381865af415801562000974573d6000803e3d6000fd5b505050506040513d601f19601f820116820180604052508101906200099a919062000edf565b101562000a47576040517f7ff2240100000000000000000000000000000000000000000000000000000000815273__$d5a3c24c931e34c4ba4cbda260a0b2ea8f$__90637ff2240190620009f7908790879087906004016200112c565b600060405180830381865af415801562000a15573d6000803e3d6000fd5b505050506040513d6000823e601f3d908101601f1916820160405262000a3f919081019062001060565b905062000897565b508262000897565b60606002838360405160200162000a6892919062001175565b60408051601f198184030181529082905262000a849162000ec1565b602060405180830381855afa15801562000aa2573d6000803e3d6000fd5b5050506040513d601f19601f8201168201806040525081019062000ac7919062000edf565b60405160200162000ada91815260200190565b604051602081830303815290604052905092915050565b82805462000aff9062000e82565b90600052602060002090601f01602090048101928262000b23576000855562000b6e565b82601f1062000b3e57805160ff191683800117855562000b6e565b8280016001018555821562000b6e579182015b8281111562000b6e57825182559160200191906001019062000b51565b5062000b7c92915062000b8e565b5090565b6104b880620011a983390190565b5b8082111562000b7c576000815560010162000b8f565b60e060020a634e487b7102600052604160045260246000fd5b604051601f8201601f1916810167ffffffffffffffff8111828210171562000bea5762000bea62000ba5565b604052919050565b600067ffffffffffffffff82111562000c0f5762000c0f62000ba5565b50601f01601f191660200190565b600062000c3462000c2e8462000bf2565b62000bbe565b905082815283838301111562000c4957600080fd5b828260208301376000602084830101529392505050565b600082601f83011262000c7257600080fd5b620008978383356020850162000c1d565b6000806040838503121562000c9757600080fd5b823567ffffffffffffffff8082111562000cb057600080fd5b62000cbe8683870162000c60565b9350602085013591508082111562000cd557600080fd5b5062000ce48582860162000c60565b9150509250929050565b60006020828403121562000d0157600080fd5b5035919050565b60005b8381101562000d2557818101518382015260200162000d0b565b8381111562000d35576000848401525b50505050565b6000815180845262000d5581602086016020860162000d08565b601f01601f19169290920160200192915050565b60408152600062000d7e604083018562000d3b565b828103602084015262000d92818562000d3b565b95945050505050565b60008060006060848603121562000db157600080fd5b833567ffffffffffffffff8082111562000dca57600080fd5b818601915086601f83011262000ddf57600080fd5b62000df08783356020850162000c1d565b9450602086013591508082111562000e0757600080fd5b62000e158783880162000c60565b9350604086013591508082111562000e2c57600080fd5b5062000e3b8682870162000c60565b9150509250925092565b60008060006060848603121562000e5b57600080fd5b833567ffffffffffffffff8082111562000e7457600080fd5b62000df08783880162000c60565b60028104600182168062000e9757607f821691505b60208210810362000ebb5760e060020a634e487b7102600052602260045260246000fd5b50919050565b6000825162000ed581846020870162000d08565b9190910192915050565b60006020828403121562000ef257600080fd5b5051919050565b60408152600062000f0e604083018562000d3b565b905073ffffffffffffffffffffffffffffffffffffffff831660208301529392505050565b60e060020a634e487b7102600052603260045260246000fd5b60006020808352600084548160028204905060018083168062000f7057607f831692505b858310810362000f915760e060020a634e487b710285526022600452602485fd5b87860183815260200181801562000fb1576001811462000fc35762000ff0565b60ff1986168252878201965062000ff0565b60008b81526020902060005b8681101562000fea5781548482015290850190890162000fcf565b83019750505b50949998505050505050505050565b60e060020a634e487b7102600052601160045260246000fd5b600082620010395760e060020a634e487b7102600052601260045260246000fd5b500490565b60008160001904831182151516156200105b576200105b62000fff565b500290565b6000602082840312156200107357600080fd5b815167ffffffffffffffff8111156200108b57600080fd5b8201601f810184136200109d57600080fd5b8051620010ae62000c2e8262000bf2565b818152856020838501011115620010c457600080fd5b62000d9282602083016020860162000d08565b600060018201620010ec57620010ec62000fff565b5060010190565b8051602080830151919081101562000ebb5760200360080260020a60000316919050565b60208152600062000897602083018462000d3b565b60608152600062001141606083018662000d3b565b828103602084015262001155818662000d3b565b905082810360408401526200116b818562000d3b565b9695505050505050565b600083516200118981846020880162000d08565b8351908301906200119f81836020880162000d08565b0194935050505056fe608060405234801561001057600080fd5b506040516104b83803806104b883398101604081905261002f9161014d565b8151610042906001906020850190610069565b5060008054600160a060020a031916600160a060020a039290921691909117905550610283565b82805461007590610230565b90600052602060002090601f01602090048101928261009757600085556100dd565b82601f106100b057805160ff19168380011785556100dd565b828001600101855582156100dd579182015b828111156100dd5782518255916020019190600101906100c2565b506100e99291506100ed565b5090565b5b808211156100e957600081556001016100ee565b7f4e487b7100000000000000000000000000000000000000000000000000000000600052604160045260246000fd5b8051600160a060020a038116811461014857600080fd5b919050565b6000806040838503121561016057600080fd5b825167ffffffffffffffff8082111561017857600080fd5b818501915085601f83011261018c57600080fd5b81518181111561019e5761019e610102565b604051601f8201601f19908116603f011681019083821181831017156101c6576101c6610102565b816040528281526020935088848487010111156101e257600080fd5b600091505b8282101561020457848201840151818301850152908301906101e7565b828211156102155760008484830101525b9550610225915050858201610131565b925050509250929050565b60028104600182168061024457607f821691505b60208210810361027d577f4e487b7100000000000000000000000000000000000000000000000000000000600052602260045260246000fd5b50919050565b610226806102926000396000f3fe608060405234801561001057600080fd5b5060043610610052577c01000000000000000000000000000000000000000000000000000000006000350463392f37e981146100575780638da5cb5b14610075575b600080fd5b61005f6100ba565b60405161006c9190610148565b60405180910390f35b6000546100959073ffffffffffffffffffffffffffffffffffffffff1681565b60405173ffffffffffffffffffffffffffffffffffffffff909116815260200161006c565b600180546100c79061019d565b80601f01602080910402602001604051908101604052809291908181526020018280546100f39061019d565b80156101405780601f1061011557610100808354040283529160200191610140565b820191906000526020600020905b81548152906001019060200180831161012357829003601f168201915b505050505081565b600060208083528351808285015260005b8181101561017557858101830151858201604001528201610159565b81811115610187576000604083870101525b50601f01601f1916929092016040019392505050565b6002810460018216806101b157607f821691505b6020821081036101ea577f4e487b7100000000000000000000000000000000000000000000000000000000600052602260045260246000fd5b5091905056fea2646970667358221220b6ca7e7859334fb937b7d5d108c32040040a3cea21e9d06c734b3f1d873729bd64736f6c634300080e0033a26469706673582212204b25628b7c52bd0e02530bfd0738a22ec2cabc6ea0830f819fc9f11aa826de8564736f6c634300080e0033",
  "linkReferences": {
    "contracts/BigInt.sol": {
      "BigInt": [
        {
          "length": 20,
          "start": 1388
        },
        {
          "length": 20,
          "start": 2036
        },
        {
          "length": 20,
          "start": 2364
        },
        {
          "length": 20,
          "start": 2537
        }
      ]
    }
  },
  "deployedLinkReferences": {
    "contracts/BigInt.sol": {
      "BigInt": [
        {
          "length": 20,
          "start": 1356
        },
        {
          "length": 20,
          "start": 2004
        },
        {
          "length": 20,
          "start": 2332
        },
        {
          "length": 20,
          "start": 2505
        }
      ]
    }
  }
}