{
  "_format": "hh-sol-artifact-1",
  "contractName": "BigInt",
  "sourceName": "contracts/BigInt.sol",
  "abi": [
    {
      "inputs": [
        {
          "internalType": "bytes",
          "name": "val",
          "type": "bytes"
        }
      ],
      "name": "get_bit_length",
      "outputs": [
        {
          "internalType": "uint256",
          "name": "res",
          "type": "uint256"
        }
      ],
      "stateMutability": "pure",
      "type": "function"
    },
    {
      "inputs": [
        {
          "internalType": "bytes",
          "name": "b",
          "type": "bytes"
        },
        {
          "internalType": "bytes",
          "name": "e",
          "type": "bytes"
        },
        {
          "internalType": "bytes",
          "name": "n",
          "type": "bytes"
        }
      ],
      "name": "modpow",
      "outputs": [
        {
          "internalType": "bytes",
          "name": "ret",
          "type": "bytes"
        }
      ],
      "stateMutability": "view",
      "type": "function"
    },
    {
      "inputs": [
        {
          "internalType": "bytes",
          "name": "a",
          "type": "bytes"
        },
        {
          "internalType": "bytes",
          "name": "b",
          "type": "bytes"
        }
      ],
      "name": "xor",
      "outputs": [
        {
          "internalType": "bytes",
          "name": "",
          "type": "bytes"
        }
      ],
      "stateMutability": "pure",
      "type": "function"
    }
  ],
  "bytecode": "0x6108cb610053600b82828239805160001a607314610046577f4e487b7100000000000000000000000000000000000000000000000000000000600052600060045260246000fd5b30600052607381538281f3fe7300000000000000000000000000000000000000003014608060405260043610610067577c01000000000000000000000000000000000000000000000000000000006000350463059dd39c811461006c578063757aaa47146100955780637ff22401146100b6575b600080fd5b61007f61007a366004610623565b6100c9565b60405161008c9190610687565b60405180910390f35b6100a86100a33660046106dc565b61025b565b60405190815260200161008c565b61007f6100c4366004610719565b610294565b606060006101016100d98561025b565b6100e391906107ba565b6100ee9060016107df565b905060006101016100fe8561025b565b61010891906107ba565b6101139060016107df565b90506000610121838361032e565b905060008167ffffffffffffffff81111561013e5761013e61057d565b604051908082528060200260200182016040528015610167578160200160208202803683370190505b50905060005b8281101561022d57600080868310156101ad576000600161018e858a6107f7565b61019891906107f7565b6101a390602061080e565b8b01602001519250505b858310156101e257600060016101c385896107f7565b6101cd91906107f7565b6101d890602061080e565b8a01602001519150505b8181188460016101f286896107f7565b6101fc91906107f7565b8151811061020c5761020c61082d565b6020026020010181815250505050808061022590610846565b91505061016d565b508060405160200161023f919061085f565b6040516020818303038152906040529450505050505b92915050565b602081810151825160009261026f916107f7565b61027a90600861080e565b61028382610346565b61028d91906107df565b9392505050565b606083518351835160405183815282602082015281604082015283606082018560208b0160046101c2fa846060019450838583018560208b0160046101c2fa948401949050828286018160208a0160046101c2fa905080806102f257fe5b50938201938260608301868460056105465a03fa9050808061031057fe5b50506040808201838152919092016060019091529695505050505050565b60008183111561033f575081610255565b5080610255565b604080517ff8f9cbfae6cc78fbefe7cdc3a1793dfcf4f0e8bbd8cec470b6a28a7a5a3e1efd81527ff5ecf1b3e9debc68e1d9cfabc5997135bfb7a7a3938b7b606b5b4b3f2f1f0ffe60208201527ff6e4ed9ff2d6b458eadcdf97bd91692de2d4da8fd2d0ac50c6ae9a8272523616818301527fc8c0b887b0a8a4489c948c7f847c6125746c645c544c444038302820181008ff60608201527ff7cae577eec2a03cf3bad76fb589591debb2dd67e0aa9834bea6925f6a4a2e0e60808201527fe39ed557db96902cd38ed14fad815115c786af479b7e8324736353433727170760a08201527fc976c13bb96e881cb166a933a55e490d9d56952b8d4e801485467d236242260660c08201527f753a6d1b65325d0c552a4d1345224105391a310b29122104190a11030902010060e08201526101008181019092527f01000000000000000000000000000000000000000000000000000000000000007e818283848586878898a8b8c8d8e8f929395969799a9b9d9e9faaeb6bedeeff70010000000000000000000000000000000068010000000000000000640100000000620100006010600460026000198c019081041790810417908104178881041790810417908104179081041790810417600190810191820283900460ff039093015190947f8000000000000000000000000000000000000000000000000000000000000000811190940291900401919061055b90826107f7565b811615801561056957508215155b156105775761028d82610846565b50919050565b60e060020a634e487b7102600052604160045260246000fd5b600082601f8301126105a757600080fd5b813567ffffffffffffffff808211156105c2576105c261057d565b604051601f8301601f19908116603f011681019082821181831017156105ea576105ea61057d565b8160405283815286602085880101111561060357600080fd5b836020870160208301376000602085830101528094505050505092915050565b6000806040838503121561063657600080fd5b823567ffffffffffffffff8082111561064e57600080fd5b61065a86838701610596565b9350602085013591508082111561067057600080fd5b5061067d85828601610596565b9150509250929050565b600060208083528351808285015260005b818110156106b457858101830151858201604001528201610698565b818111156106c6576000604083870101525b50601f01601f1916929092016040019392505050565b6000602082840312156106ee57600080fd5b813567ffffffffffffffff81111561070557600080fd5b61071184828501610596565b949350505050565b60008060006060848603121561072e57600080fd5b833567ffffffffffffffff8082111561074657600080fd5b61075287838801610596565b9450602086013591508082111561076857600080fd5b61077487838801610596565b9350604086013591508082111561078a57600080fd5b5061079786828701610596565b9150509250925092565b60e060020a634e487b7102600052601160045260246000fd5b6000826107da5760e060020a634e487b7102600052601260045260246000fd5b500490565b600082198211156107f2576107f26107a1565b500190565b600082821015610809576108096107a1565b500390565b6000816000190483118215151615610828576108286107a1565b500290565b60e060020a634e487b7102600052603260045260246000fd5b600060018201610858576108586107a1565b5060010190565b815160009082906020808601845b838110156108895781518552938201939082019060010161086d565b5092969550505050505056fea2646970667358221220aaca4c74aa481b93b05689061bf8a23fcf8d5b78de79bbf8032d4ae8b679d61164736f6c634300080e0033",
  "linkReferences": {},
  "deployedLinkReferences": {}
}