{
  "_format": "hh-sol-artifact-1",
  "contractName": "RSARingSignature",
  "sourceName": "contracts/RSARingSignature.sol",
  "abi": [
    {
      "inputs": [
        {
          "internalType": "bytes",
          "name": "n",
          "type": "bytes"
        },
        {
          "internalType": "bytes",
          "name": "e",
          "type": "bytes"
        }
      ],
      "name": "addKey",
      "outputs": [],
      "stateMutability": "nonpayable",
      "type": "function"
    },
    {
      "inputs": [
        {
          "internalType": "uint256",
          "name": "",
          "type": "uint256"
        }
      ],
      "name": "keys",
      "outputs": [
        {
          "internalType": "bytes",
          "name": "n",
          "type": "bytes"
        },
        {
          "internalType": "bytes",
          "name": "e",
          "type": "bytes"
        }
      ],
      "stateMutability": "view",
      "type": "function"
    },
    {
      "inputs": [],
      "name": "members",
      "outputs": [
        {
          "internalType": "uint256",
          "name": "",
          "type": "uint256"
        }
      ],
      "stateMutability": "view",
      "type": "function"
    },
    {
      "inputs": [
        {
          "internalType": "bytes",
          "name": "message",
          "type": "bytes"
        },
        {
          "internalType": "bytes",
          "name": "v",
          "type": "bytes"
        },
        {
          "internalType": "bytes",
          "name": "X",
          "type": "bytes"
        }
      ],
      "name": "ringVerify",
      "outputs": [
        {
          "internalType": "bool",
          "name": "",
          "type": "bool"
        }
      ],
      "stateMutability": "view",
      "type": "function"
    }
  ],
  "bytecode": "0x608060405234801561001057600080fd5b50610dcc806100206000396000f3fe608060405234801561001057600080fd5b506004361061004f5760e060020a60003504630c6fe1aa81146100545780630cb6aaf114610069578063bdd4d18d14610093578063de21b82a146100a4575b600080fd5b610067610062366004610945565b6100c7565b005b61007c6100773660046109a9565b610144565b60405161008a929190610a1e565b60405180910390f35b60005460405190815260200161008a565b6100b76100b2366004610a4c565b610288565b604051901515815260200161008a565b604080518082019091528281526020808201839052600080546001810182559080528251805160029092027f290decd9548b62a8d60345a988386fc84ba6bc95484008f6362f93160ef3e5630192610124928492909101906107e4565b50602082810151805161013d92600185019201906107e4565b5050505050565b6000818154811061015457600080fd5b906000526020600020906002020160009150905080600001805461017790610ad4565b80601f01602080910402602001604051908101604052809291908181526020018280546101a390610ad4565b80156101f05780601f106101c5576101008083540402835291602001916101f0565b820191906000526020600020905b8154815290600101906020018083116101d357829003601f168201915b50505050509080600101805461020590610ad4565b80601f016020809104026020016040519081016040528092919081815260200182805461023190610ad4565b801561027e5780601f106102535761010080835404028352916020019161027e565b820191906000526020600020905b81548152906001019060200180831161026157829003601f168201915b5050505050905082565b600080600873__$d5a3c24c931e34c4ba4cbda260a0b2ea8f$__63757aaa47600080815481106102ba576102ba610b11565b90600052602060002090600202016000016040518263ffffffff1660e060020a0281526004016102ea9190610b2a565b602060405180830381865af4158015610307573d6000803e3d6000fd5b505050506040513d601f19601f8201168201806040525081019061032b9190610bd5565b6103359190610c07565b90508360005b60005481101561058a5760006103518483610c2c565b905060006103608783876105aa565b905060006104e6826040516020016103789190610c4b565b6040516020818303038152906040526000868154811061039a5761039a610b11565b906000526020600020906002020160010180546103b690610ad4565b80601f01602080910402602001604051908101604052809291908181526020018280546103e290610ad4565b801561042f5780601f106104045761010080835404028352916020019161042f565b820191906000526020600020905b81548152906001019060200180831161041257829003601f168201915b50505050506000878154811061044757610447610b11565b9060005260206000209060020201600001805461046390610ad4565b80601f016020809104026020016040519081016040528092919081815260200182805461048f90610ad4565b80156104dc5780601f106104b1576101008083540402835291602001916104dc565b820191906000526020600020905b8154815290600101906020018083116104bf57829003601f168201915b505050505061061d565b905061057273__$d5a3c24c931e34c4ba4cbda260a0b2ea8f$__63059dd39c87846040518363ffffffff1660e060020a028152600401610527929190610a1e565b600060405180830381865af4158015610544573d6000803e3d6000fd5b505050506040513d6000823e601f3d908101601f1916820160405261056c9190810190610c67565b8b61074a565b9450505050808061058290610cd5565b91505061033b565b5061059485610cee565b61059d82610cee565b14925050505b9392505050565b606080821580156105ca5760405191506000825260208201604052610614565b6040519150601f8416801560200281840101858101878315602002848b0101015b818310156106035780518352602092830192016105eb565b5050858452601f01601f1916604052505b50949350505050565b606061040173__$d5a3c24c931e34c4ba4cbda260a0b2ea8f$__63757aaa47846040518263ffffffff1660e060020a02815260040161065c9190610d11565b602060405180830381865af4158015610679573d6000803e3d6000fd5b505050506040513d601f19601f8201168201806040525081019061069d9190610bd5565b1015610743576040517f7ff2240100000000000000000000000000000000000000000000000000000000815273__$d5a3c24c931e34c4ba4cbda260a0b2ea8f$__90637ff22401906106f790879087908790600401610d24565b600060405180830381865af4158015610714573d6000803e3d6000fd5b505050506040513d6000823e601f3d908101601f1916820160405261073c9190810190610c67565b90506105a3565b50826105a3565b606060028383604051602001610761929190610d67565b60408051601f198184030181529082905261077b91610c4b565b602060405180830381855afa158015610798573d6000803e3d6000fd5b5050506040513d601f19601f820116820180604052508101906107bb9190610bd5565b6040516020016107cd91815260200190565b604051602081830303815290604052905092915050565b8280546107f090610ad4565b90600052602060002090601f0160209004810192826108125760008555610858565b82601f1061082b57805160ff1916838001178555610858565b82800160010185558215610858579182015b8281111561085857825182559160200191906001019061083d565b50610864929150610868565b5090565b5b808211156108645760008155600101610869565b60e060020a634e487b7102600052604160045260246000fd5b604051601f8201601f1916810167ffffffffffffffff811182821017156108bf576108bf61087d565b604052919050565b600067ffffffffffffffff8211156108e1576108e161087d565b50601f01601f191660200190565b600082601f83011261090057600080fd5b813561091361090e826108c7565b610896565b81815284602083860101111561092857600080fd5b816020850160208301376000918101602001919091529392505050565b6000806040838503121561095857600080fd5b823567ffffffffffffffff8082111561097057600080fd5b61097c868387016108ef565b9350602085013591508082111561099257600080fd5b5061099f858286016108ef565b9150509250929050565b6000602082840312156109bb57600080fd5b5035919050565b60005b838110156109dd5781810151838201526020016109c5565b838111156109ec576000848401525b50505050565b60008151808452610a0a8160208601602086016109c2565b601f01601f19169290920160200192915050565b604081526000610a3160408301856109f2565b8281036020840152610a4381856109f2565b95945050505050565b600080600060608486031215610a6157600080fd5b833567ffffffffffffffff80821115610a7957600080fd5b610a85878388016108ef565b94506020860135915080821115610a9b57600080fd5b610aa7878388016108ef565b93506040860135915080821115610abd57600080fd5b50610aca868287016108ef565b9150509250925092565b600281046001821680610ae857607f821691505b602082108103610b0b5760e060020a634e487b7102600052602260045260246000fd5b50919050565b60e060020a634e487b7102600052603260045260246000fd5b600060208083526000845481600282049050600180831680610b4d57607f831692505b8583108103610b6d5760e060020a634e487b710285526022600452602485fd5b878601838152602001818015610b8a5760018114610b9b57610bc6565b60ff19861682528782019650610bc6565b60008b81526020902060005b86811015610bc057815484820152908501908901610ba7565b83019750505b50949998505050505050505050565b600060208284031215610be757600080fd5b5051919050565b60e060020a634e487b7102600052601160045260246000fd5b600082610c275760e060020a634e487b7102600052601260045260246000fd5b500490565b6000816000190483118215151615610c4657610c46610bee565b500290565b60008251610c5d8184602087016109c2565b9190910192915050565b600060208284031215610c7957600080fd5b815167ffffffffffffffff811115610c9057600080fd5b8201601f81018413610ca157600080fd5b8051610caf61090e826108c7565b818152856020838501011115610cc457600080fd5b610a438260208301602086016109c2565b600060018201610ce757610ce7610bee565b5060010190565b80516020808301519190811015610b0b5760200360080260020a60000316919050565b6020815260006105a360208301846109f2565b606081526000610d3760608301866109f2565b8281036020840152610d4981866109f2565b90508281036040840152610d5d81856109f2565b9695505050505050565b60008351610d798184602088016109c2565b835190830190610d8d8183602088016109c2565b0194935050505056fea26469706673582212206b69558af8a61ced45e4d8249eccf724935d206dfb0a09703c7ced243ffc9c1f64736f6c634300080e0033",
  "linkReferences": {
    "contracts/BigInt.sol": {
      "BigInt": [
        {
          "length": 20,
          "start": 687
        },
        {
          "length": 20,
          "start": 1293
        },
        {
          "length": 20,
          "start": 1604
        },
        {
          "length": 20,
          "start": 1771
        }
      ]
    }
  },
  "deployedLinkReferences": {
    "contracts/BigInt.sol": {
      "BigInt": [
        {
          "length": 20,
          "start": 655
        },
        {
          "length": 20,
          "start": 1261
        },
        {
          "length": 20,
          "start": 1572
        },
        {
          "length": 20,
          "start": 1739
        }
      ]
    }
  }
}